:020000040000FA
:100000000200ECE4F5C875CA4F75CB9C75CC4F75F2
:10001000CD9CC2CA22EB9FF5F0EA9E42F0E99D42D8
:10002000F0E89C45F022D2AFD2AD220201F21202DA
:100030002C120003120220120026750A0175090114
:10004000E50924FD607A240270F6E50A6401701265
:100050007DF47C017F10FE12017BEF60E3750A02E4
:10006000802FE50A6402702E208617208614D3E5BF
:100070000C9432E50B940040F2750A0175090312E5
:1000800002203086BBE50A640270B5750A031202CD
:100090002012021680AAE50A640370A4D3E50C942A
:1000A00026E50B94025003208608750A01750903A2
:1000B000800920878B750A11750902120220808041
:1000C000C2831201C2D2821201C2C2821201C2D202
:1000D000837F0A7E001201C6C2807F647E00120107
:1000E000C6D280750901750A010200401202287803
:1000F0007FE4F6D8FD75811402013602002EE493E8
:10010000A3F8E493A34003F68001F208DFF480290A
:10011000E493A3F85407240CC8C333C4540F4420F9
:10012000C8834004F456800146F6DFE4800B0102E8
:10013000040810204080900201E47E019360BCA37B
:10014000FF543F30E509541FFEE493A360010ECF36
:1001500054C025E060A840B8E493A3FAE493A3F860
:10016000E493A3C8C582C8CAC583CAF0A3C8C58220
:10017000C8CAC583CADFE9DEE780BE8E0F8F108C48
:10018000118D12E4F513F514F513F5142084187F7E
:10019000017E001201C60514E51470020513D39404
:1001A000FFE51394FF40E5D3E5149510E513950F93
:1001B000400DE5149512E513951150037F01227F40
:1001C00000227F057E0053883F53890F43891043E7
:1001D0008E10EF4E6019C28E758DF4758B09C28F2B
:1001E000D28E208F030080FAEF1F70E61E80E3C2DC
:1001F0008E22C0E0C2CF050CE50C7002050BD0E0EA
:1002000032020B0000010E00010D000043A42D532B
:1002100080FB75E3C022E4F50BF50CD2CAD2AD2207
:0F022000C2CAE4F50BF50C2253D9BF2202020C1F
:00000001FF
