:020000040000FA
:1000000002011F12029712025212028312028B7512
:100010000901750801E50824FE70030200A91470A7
:10002000030200F3240270EDE5096401700DFE1275
:1000300001AEEF60E07509020200EDE509640270AF
:100040002C208617208614D3E50B9432E50A940001
:1000500040F27509017508031202833086B7E5097D
:10006000640270B17509031202830200EDE50964B0
:100070000370A2AE0AAF0BFCFD7BD87AD6F9F8C3A9
:1000800012022B50028003208608750901750803AF
:100090008011120294EF64016003020015750911CA
:1000A000750802120283020015E5096411702F30F1
:1000B00086030200152086117E001201AEEF60F566
:1000C000750902750801120279208603020015E500
:1000D0000964116003020015750912020015E50993
:1000E0006412600302001575090375080112027994
:1000F000020015C2831201FBD2821201FBC28212DE
:1001000001FBD2837F0A7E001201FFC2807F647EE2
:10011000001201FFD2807508017509010200151255
:100120000290787FE4F6D8FD758113020169020020
:1001300003E493A3F8E493A34003F68001F208DFFD
:10014000F48029E493A3F85407240CC8C333C4549F
:100150000F4420C8834004F456800146F6DFE48053
:100160000B0102040810204080900264E47E019399
:1001700060BCA3FF543F30E509541FFEE493A36025
:10018000010ECF54C025E060A840B8E493A3FAE480
:1001900093A3F8E493A3C8C582C8CAC583CAF0A3D1
:1001A000C8C582C8CAC583CADFE9DEE780BE7DF460
:1001B0007C017F108E0E8F0F8C108D11E4F512F5DF
:1001C00013F512F5132084187F017E001201FF053C
:1001D00013E51370020512D394FFE51294FF40E576
:1001E000D3E513950FE512950E400DE5139511E536
:1001F00012951050037F01227F00227F057E00535D
:10020000883F53890F438910438E10EF4E6019C207
:100210008E758DF4758B09C28FD28E208F0300806E
:10022000FAEF1F70E61E80E3C28E22EB9FF5F0EA24
:100230009E42F0E99D42F0EC6480C864809845F0ED
:1002400022EB9FF5F0EA9E42F0E99D42F0E89C45E2
:10025000F022E4F5C875CA4F75CB9C75CC4F75CDAF
:100260009CC2CA22020A0000010D00010C000043DA
:10027000A42D5380FB75E3C022E4F50AF50BD2CA26
:10028000D2AD22C2CAE4F50AF50B22D2AFD2AD221A
:0A02900053D9BF227F012202026F42
:00000001FF
