:020000040000FA
:100000000201921200F5EF6010D28C1200F5EF6041
:1000100008C28C858A16858C1522EB9FF5F0EA9E26
:1000200042F0E99D42F0E89C45F0220203221203CF
:100030006112031012035012035875120175110159
:10004000E51124FD70030200C9240270F3E5126477
:100050000170127DF47C017F10FE120286EF60E0D9
:10006000751202802FE5126402702E2086172086FA
:1000700014D3E5149432E513940040F2751201751F
:1000800011031203503086B8E512640270B2751283
:100090000312035012034680A7E512640370A1D334
:1000A000E5149426E5139402500320860875120186
:1000B000751103800E120221EF6401708375121115
:1000C000751102120350020040C2831202CDD28287
:1000D0001202CDC2821202CDD2837F0A7E001202AA
:1000E000D1C2807F647E001202D1D2807511017569
:1000F0001201020040E4F50BF50AF509F508E47F6A
:10010000FF7E0FFDFCAB0BAA0AA909A808D31200B9
:100110001A502F30872CE50B2401F50BE4350AF536
:100120000AE43509F509E43508F508FCE50B240176
:10013000F50BE4350AF50AE43509F509E43CF50860
:1001400080BCE4F50FF50EF50DF50CE47FFF7E0F96
:10015000FDFCAB0FAA0EA90DA80CD312001A502F4C
:1001600020872CE50F2401F50FE4350EF50EE4355C
:100170000DF50DE4350CF50CFCE50F2401F50FE44D
:10018000350EF50EE4350DF50DE43CF50C80BC7F25
:10019000012212035D787FE4F6D8FD758116020115
:1001A000DC02002EE493A3F8E493A34003F680015D
:1001B000F208DFF48029E493A3F85407240CC8C3A1
:1001C00033C4540F4420C8834004F456800146F6DB
:1001D000DFE4800B0102040810204080900331E42A
:1001E0007E019360BCA3FF543F30E509541FFEE439
:1001F00093A360010ECF54C025E060A840B8E493FB
:10020000A3FAE493A3F8E493A3C8C582C8CAC5833C
:10021000CAF0A3C8C582C8CAC583CADFE9DEE780C1
:10022000BEE4FFFE1202FD120003E515FEE516FF17
:10023000C394E8EE9400400CD3EF941BEE9401506D
:10024000037F0122C3EF9478EE9400400CD3EF9427
:10025000A0EE940050037F0222C3EF944DEE940071
:10026000400CD3EF945EEE940050037F0322C3EF63
:100270009417EE9400400CD3EF941CEE94005003BE
:100280007F0A227F00228E088F098C0A8D0BE4F5ED
:100290000CF50DF50CF50D2084187F017E0012027F
:1002A000D1050DE50D7002050CD394FFE50C94FF0C
:1002B00040E5D3E50D9509E50C9508400DE50D9554
:1002C0000BE50C950A50037F01227F00227F057EFB
:1002D0000053883F53890F438910438E10EF4E60BF
:1002E00019C28E758DF4758B09C28FD28E208F0343
:1002F0000080FAEF1F70E61E80E3C28E225389F061
:10030000438901438E04C28CC28DE4F58CF58A22A8
:10031000E4F5C875CA4F75CB9C75CC4F75CD9CC2A2
:10032000CA22C0E0C2CF0514E51470020513D0E064
:1003300032021300000116000115000043A42D53E2
:10034000807B75E3C022E4F513F514D2CAD2AD2246
:10035000C2CAE4F513F51422D2AFD2AD2253D9BFED
:040360002202033C36
:00000001FF
