:020000040000FA
:1000000002011F12029D12025812028912029175FA
:100010000901750801E50824FE70030200A91470A7
:10002000030200F3240270EDE5096401700DFE1275
:1000300001AEEF60E07509020200EDE509640270AF
:100040002C208617208614D3E50B9488E50A941398
:1000500040F27509017508031202893086B7E50977
:10006000640270B17509031202890200EDE50964AA
:100070000370A2AE0AAF0BFCFD7BD87AD6F9F8C3A9
:1000800012023150028003208608750901750803A9
:10009000801112029AEF64016003020015750911C4
:1000A000750802120289020015E5096411702F30EB
:1000B00086030200152086117E001201AEEF60F566
:1000C00075090275080112027F208603020015E5FA
:1000D0000964116003020015750912020015E50993
:1000E0006412600302001575090375080112027F8E
:1000F000020015C2831201FBD2821201FBC28212DE
:1001000001FBD2837F0A7E001201FFC2807F647EE2
:10011000001201FFD2807508017509010200151255
:100120000296787FE4F6D8FD75811302016902001A
:1001300003E493A3F8E493A34003F68001F208DFFD
:10014000F48029E493A3F85407240CC8C333C4549F
:100150000F4420C8834004F456800146F6DFE48053
:100160000B010204081020408090026AE47E019393
:1001700060BCA3FF543F30E509541FFEE493A36025
:10018000010ECF54C025E060A840B8E493A3FAE480
:1001900093A3F8E493A3C8C582C8CAC583CAF0A3D1
:1001A000C8C582C8CAC583CADFE9DEE780BE7DF460
:1001B0007C017F108E0E8F0F8C108D11E4F512F5DF
:1001C00013F512F5132084187F017E001201FF053C
:1001D00013E51370020512D394FFE51294FF40E576
:1001E000D3E513950FE512950E400DE5139511E536
:1001F00012951050037F01227F00227F057E00535D
:10020000883F53890F438910438E10EF4E601E5371
:1002100088BF758DF4758B0953887F438840E58EC0
:1002200020E7030080F8EF1F70E11E80DE5388BFD7
:1002300022EB9FF5F0EA9E42F0E99D42F0EC6480EB
:10024000C864809845F022EB9FF5F0EA9E42F0E901
:100250009D42F0E89C45F022E4F5C875CA4F75CB85
:100260009C75CC4F75CD9CC2CA22020A0000010DBC
:1002700000010C000043A42D5380FB75E3C022E471
:10028000F50AF50BD2CAD2AD22C2CAE4F50AF50BC3
:1002900022D2AFD2AD2253D9BF227F0122020275F2
:00000001FF
