:020000040000FA
:100000000201BC1203C61203841203B51203BD75AC
:100010001101751001E51024FE70030200A914708F
:10002000030200F3240270EDE5116401700DFE126D
:1000300002B0EF60E07511020200EDE5116402709C
:100040002C208617208614D3E5139488E512941388
:1000500040F27511017510031203B53086B7E51132
:10006000640270B17511031203B50200EDE511646D
:100070000370A2AE12AF13FCFD7BD87AD6F9F8C399
:100080001203335002800320860875110175100396
:10009000801112024BEF640160030200157511110B
:1000A0007510021203B5020015E5116411702F30AE
:1000B00086030200152086117E001202B0EF60F563
:1000C0007511027510011203AB208603020015E5BD
:1000D0001164116003020015751112020015E5117B
:1000E000641260030200157511037510011203AB51
:1000F000020015C2831202FDD2821202FDC28212D8
:1001000002FDD2837F0A7E00120301C2807F647EDB
:1001100000120301D280751001751101020015E46F
:10012000F50BF50AF509F508E47FFF7E0FFDFCAB42
:100130000BAA0AA909A808D3120349502F30872C0B
:10014000E50B2401F50BE4350AF50AE43509F50958
:10015000E43508F508FCE50B2401F50BE4350AF558
:100160000AE43509F509E43CF50880BCE4F50FF52F
:100170000EF50DF50CE47FFF7E0FFDFCAB0FAA0E14
:10018000A90DA80CD3120349502F20872CE50F246A
:1001900001F50FE4350EF50EE4350DF50DE4350CE3
:1001A000F50CFCE50F2401F50FE4350EF50EE435F2
:1001B0000DF50DE43CF50C80BC7F01221203C278E2
:1001C0007FE4F6D8FD758115020206020003E49370
:1001D000A3F8E493A34003F68001F208DFF480293A
:1001E000E493A3F85407240CC8C333C4540F442029
:1001F000C8834004F456800146F6DFE4800B010218
:10020000040810204080900396E47E019360BCA314
:10021000FF543F30E509541FFEE493A360010ECF65
:1002200054C025E060A840B8E493A3FAE493A3F88F
:10023000E493A3C8C582C8CAC583CAF0A3C8C5824F
:10024000C8CAC583CADFE9DEE780BEE4FFFE120349
:100250007112035AE514FEE515FFC394E8EE94000D
:10026000400CD3EF941BEE940150037F0122C3EFA7
:100270009478EE9400400CD3EF94A0EE94005003D9
:100280007F0222C3EF944DEE9400400CD3EF945EB6
:10029000EE940050037F0322C3EF9417EE940040C6
:1002A0000CD3EF941CEE940050037F0A227F0022AF
:1002B0007DF47C017F108E088F098C0A8D0BE4F58C
:1002C0000CF50DF50CF50D2084187F017E0012034E
:1002D00001050DE50D7002050CD394FFE50C94FFAC
:1002E00040E5D3E50D9509E50C9508400DE50D9524
:1002F0000BE50C950A50037F01227F00227F057ECB
:100300000053883F53890F438910438E10EF4E608E
:100310001E5388BF758DF4758B0953887F438840C1
:10032000E58E20E7030080F8EF1F70E11E80DE53AA
:1003300088BF22EB9FF5F0EA9E42F0E99D42F0EC87
:100340006480C864809845F022EB9FF5F0EA9E42F5
:10035000F0E99D42F0E89C45F02212011FEF601089
:10036000D28C12011FEF6008C28C858A15858C140F
:10037000225389F0438901438E04C28CC28DE4F577
:100380008CF58A22E4F5C875CA4F75CB9C75CC4FA5
:1003900075CD9CC2CA220212000001150001140092
:1003A0000043A42D75803975E3C022E4F512F513DE
:1003B000D2CAD2AD22C2CAE4F512F51322D2AFD20C
:0903C000AD2253D9BF220203A1B2
:00000001FF
