:020000040000FA
:100000000200C71202201201CD12020F1202177550
:100010000A01750901E50924FD700302009B240211
:1000200070F3E50A640170127DF47C017F10FE120A
:100030000156EF60E0750A02802FE50A6402702E17
:10004000208617208614D3E50C9432E50B940040EB
:10005000F2750A0175090312020F3086B8E50A64C9
:100060000270B2750A0312020F12020580A7E50A98
:10007000640370A1D3E50C9426E50B940240028042
:1000800003208608750A0175090380092087867593
:100090000A1175090212020F020015C28312019D96
:1000A000D28212019DC28212019DD2837F0A7E00FC
:1000B0001201A1C2807F647E001201A1D280750965
:1000C00001750A0102001512021C787FE4F6D8FDC2
:1000D000758114020111020003E493A3F8E493A3D1
:1000E0004003F68001F208DFF48029E493A3F8547A
:1000F00007240CC8C333C4540F4420C8834004F4FD
:1001000056800146F6DFE4800B010204081020400F
:10011000809001F0E47E019360BCA3FF543F30E582
:1001200009541FFEE493A360010ECF54C025E06084
:10013000A840B8E493A3FAE493A3F8E493A3C8C552
:1001400082C8CAC583CAF0A3C8C582C8CAC583CA43
:10015000DFE9DEE780BE8E0F8F108C118D12E4F583
:1001600013F514F513F5142084187F017E00120195
:10017000A10514E51470020513D394FFE51394FF51
:1001800040E5D3E5149510E513950F400DE5149562
:1001900012E513951150037F01227F00227F057E17
:1001A0000053883F53890F438910438E10EF4E60F0
:1001B00019C28E758DF4758B09C28FD28E208F0374
:1001C0000080FAEF1F70E61E80E3C28E22E4F5C8BD
:1001D00075CA4F75CB9C75CC4F75CD9CC2CA22EBAE
:1001E0009FF5F0EA9E42F0E99D42F0E89C45F0223E
:1001F000020B0000010E00010D000043A42D5380EE
:10020000FB75E3C022E4F50BF50CD2CAD2AD22C2D5
:10021000CAE4F50BF50C22D2AFD2AD2253D9BF22DE
:030220000201FBDD
:00000001FF
