:020000040000FA
:1000000002021912017CEF6010D28C12017CEF60A9
:1000100008C28C858A10858C0F22EB9FF5F0EA9E32
:1000200042F0E99D42F0E89C45F0220203A9120348
:10003000EE1203971203B81203E5750A0175090160
:10004000E4F508E509700302017224FD60782402DA
:1000500070F1E50A640170107DF47C017F10FE12DE
:10006000030DEF60DE020163E50A6402702C208656
:1000700017208614D3E50C9432E50B940040F275FA
:100080000A017509031203B83086B8E50A640270E4
:10009000B2750A031203B8020166E50A640370A38D
:1000A000D3E50C9426E50B94025003208608750ACC
:1000B0000175090380201202A8EF64017085750A9A
:1000C0001175090280100508D3E508940374809423
:1000D000804009E4F5091203B8020043C2837F059A
:1000E0007E00120358D2827F887E13120358C28288
:1000F000120354D2831203541203B8C280E4F50DE4
:10010000F50E1203DBC3E50C9401E50B9400501BC4
:100110002084117F017E00120358050EE50E70E564
:10012000050D80E1E4F50DF50E80DAD2801203B8FA
:100130002084187F017E00120358050EE50E700220
:10014000050DD394F4E50D940140E5D3E50E940F2D
:10015000E50D94004016E50E94F5E50D9401500C64
:10016000750901750A021203DB02004375090302D7
:100170000043C283120354D282020043E4F514F513
:1001800013F512F511E47FFF7E0FFDFCAB14AA13EB
:10019000A912A811D312001A502F30872CE514246D
:1001A00001F514E43513F513E43512F512E43511B5
:1001B000F511FCE5142401F514E43513F513E435C9
:1001C00012F512E43CF51180BCE4F518F517F516AC
:1001D000F515E47FFF7E0FFDFCAB18AA17A916A842
:1001E00015D312001A502F20872CE5182401F5187A
:1001F000E43517F517E43516F516E43515F515FC55
:10020000E5182401F518E43517F517E43516F51649
:10021000E43CF51580BC7F01221203EA787FE4F606
:10022000D8FD75811802026302002EE493A3F8E45E
:1002300093A34003F68001F208DFF48029E493A33E
:10024000F85407240CC8C333C4540F4420C8834057
:1002500004F456800146F6DFE4800B010204081026
:100260002040809003C6E47E019360BCA3FF543F0E
:1002700030E509541FFEE493A360010ECF54C0255E
:10028000E060A840B8E493A3FAE493A3F8E493A34E
:10029000C8C582C8CAC583CAF0A3C8C582C8CAC5B2
:1002A00083CADFE9DEE780BEE4FFFE1203841200AA
:1002B00003E50FFEE510FFC394E8EE9400400CD375
:1002C000EF941BEE940150037F0122C3EF9478EE6C
:1002D0009400400CD3EF94A0EE940050037F0222D0
:1002E000C3EF944DEE9400400CD3EF945EEE940077
:1002F00050037F0322C3EF9417EE9400400CD3EF1A
:10030000941CEE940050037F0A227F00228E118FEE
:10031000128C138D14E4F515F516F515F5162084D9
:10032000187F017E001203580516E51670020515A8
:10033000D394FFE51594FF40E5D3E5169512E51536
:100340009511400DE5169514E515951350037F01A1
:10035000227F00227FD07E0753883F53890F438935
:1003600010438E10EF4E6019C28E758DF4758B0997
:10037000C28FD28E208F030080FAEF1F70E61E809E
:10038000E3C28E225389F0438901438E04C28CC29A
:100390008DE4F58CF58A22E4F5C875CA4F75CB9CBF
:1003A00075CC4F75CD9CC2CA22C0E0C2CF050CE50A
:1003B0000C7002050BD0E03275CC4F75CD9CC2CAD3
:1003C000E4F50BF50C22020B0000011000010F00F8
:1003D0000043A42D53807B75E3C022E4F50BF50C9C
:1003E000D2CAD2AD22D2AFD2AD2253D9BF2202039C
:0103F000D13B
:00000001FF
